{
  "contractName": "Lottery",
  "abi": [
    {
      "inputs": [],
      "stateMutability": "nonpayable",
      "type": "constructor"
    },
    {
      "inputs": [
        {
          "internalType": "uint256",
          "name": "",
          "type": "uint256"
        }
      ],
      "name": "players",
      "outputs": [
        {
          "internalType": "address payable",
          "name": "",
          "type": "address"
        }
      ],
      "stateMutability": "view",
      "type": "function",
      "constant": true
    },
    {
      "inputs": [],
      "name": "winner",
      "outputs": [
        {
          "internalType": "address payable",
          "name": "",
          "type": "address"
        }
      ],
      "stateMutability": "view",
      "type": "function",
      "constant": true
    },
    {
      "stateMutability": "payable",
      "type": "receive",
      "payable": true
    },
    {
      "inputs": [],
      "name": "noDuplicatePlayers",
      "outputs": [
        {
          "internalType": "bool",
          "name": "",
          "type": "bool"
        }
      ],
      "stateMutability": "view",
      "type": "function",
      "constant": true
    },
    {
      "inputs": [],
      "name": "getBalance",
      "outputs": [
        {
          "internalType": "uint256",
          "name": "",
          "type": "uint256"
        }
      ],
      "stateMutability": "view",
      "type": "function",
      "constant": true
    },
    {
      "inputs": [],
      "name": "pickWinner",
      "outputs": [],
      "stateMutability": "nonpayable",
      "type": "function"
    },
    {
      "inputs": [],
      "name": "allPlayers",
      "outputs": [
        {
          "internalType": "address payable[]",
          "name": "",
          "type": "address[]"
        }
      ],
      "stateMutability": "view",
      "type": "function",
      "constant": true
    }
  ],
  "bytecode": "0x608060405234801561001057600080fd5b5033600160006101000a81548173ffffffffffffffffffffffffffffffffffffffff021916908373ffffffffffffffffffffffffffffffffffffffff160217905550610f0a806100616000396000f3fe6080604052600436106100595760003560e01c806312065fe0146101f25780635d495aea1461021d578063afbaff7814610234578063b0ec80941461025f578063dfbf53ae1461028a578063f71d96cb146102b5576101ed565b366101ed57600160009054906101000a900473ffffffffffffffffffffffffffffffffffffffff1673ffffffffffffffffffffffffffffffffffffffff163373ffffffffffffffffffffffffffffffffffffffff1614156100ef576040517f08c379a00000000000000000000000000000000000000000000000000000000081526004016100e6906108b4565b60405180910390fd5b600115156100fb6102f2565b15151461013d576040517f08c379a000000000000000000000000000000000000000000000000000000000815260040161013490610920565b60405180910390fd5b670de0b6b3a7640000341015610188576040517f08c379a000000000000000000000000000000000000000000000000000000000815260040161017f906109b2565b60405180910390fd5b6000339080600181540180825580915050600190039060005260206000200160009091909190916101000a81548173ffffffffffffffffffffffffffffffffffffffff021916908373ffffffffffffffffffffffffffffffffffffffff160217905550005b600080fd5b3480156101fe57600080fd5b5061020761039f565b60405161021491906109eb565b60405180910390f35b34801561022957600080fd5b50610232610437565b005b34801561024057600080fd5b506102496102f2565b6040516102569190610a21565b60405180910390f35b34801561026b57600080fd5b50610274610683565b6040516102819190610b2c565b60405180910390f35b34801561029657600080fd5b5061029f610711565b6040516102ac9190610b5d565b60405180910390f35b3480156102c157600080fd5b506102dc60048036038101906102d79190610ba9565b610737565b6040516102e99190610b5d565b60405180910390f35b600080600090505b600080549050811015610396573373ffffffffffffffffffffffffffffffffffffffff166000828154811061033257610331610bd6565b5b9060005260206000200160009054906101000a900473ffffffffffffffffffffffffffffffffffffffff1673ffffffffffffffffffffffffffffffffffffffff16141561038357600091505061039c565b808061038e90610c34565b9150506102fa565b50600190505b90565b60003373ffffffffffffffffffffffffffffffffffffffff16600160009054906101000a900473ffffffffffffffffffffffffffffffffffffffff1673ffffffffffffffffffffffffffffffffffffffff1614610431576040517f08c379a000000000000000000000000000000000000000000000000000000000815260040161042890610cef565b60405180910390fd5b47905090565b600160009054906101000a900473ffffffffffffffffffffffffffffffffffffffff1673ffffffffffffffffffffffffffffffffffffffff163373ffffffffffffffffffffffffffffffffffffffff16146104c7576040517f08c379a00000000000000000000000000000000000000000000000000000000081526004016104be90610d5b565b60405180910390fd5b60036000805490501015610510576040517f08c379a000000000000000000000000000000000000000000000000000000000815260040161050790610dc7565b60405180910390fd5b600061051a610776565b9050600080805490508261052e9190610e16565b90506000818154811061054457610543610bd6565b5b9060005260206000200160009054906101000a900473ffffffffffffffffffffffffffffffffffffffff16600260006101000a81548173ffffffffffffffffffffffffffffffffffffffff021916908373ffffffffffffffffffffffffffffffffffffffff160217905550600260009054906101000a900473ffffffffffffffffffffffffffffffffffffffff1673ffffffffffffffffffffffffffffffffffffffff166108fc6105f361039f565b9081150290604051600060405180830381858888f1935050505015801561061e573d6000803e3d6000fd5b50600067ffffffffffffffff81111561063a57610639610e47565b5b6040519080825280602002602001820160405280156106685781602001602082028036833780820191505090505b506000908051906020019061067e9291906107b0565b505050565b6060600080548060200260200160405190810160405280929190818152602001828054801561070757602002820191906000526020600020905b8160009054906101000a900473ffffffffffffffffffffffffffffffffffffffff1673ffffffffffffffffffffffffffffffffffffffff16815260200190600101908083116106bd575b5050505050905090565b600260009054906101000a900473ffffffffffffffffffffffffffffffffffffffff1681565b6000818154811061074757600080fd5b906000526020600020016000915054906101000a900473ffffffffffffffffffffffffffffffffffffffff1681565b6000444260008054905060405160200161079293929190610e97565b6040516020818303038152906040528051906020012060001c905090565b828054828255906000526020600020908101928215610829579160200282015b828111156108285782518260006101000a81548173ffffffffffffffffffffffffffffffffffffffff021916908373ffffffffffffffffffffffffffffffffffffffff160217905550916020019190600101906107d0565b5b509050610836919061083a565b5090565b5b8082111561085357600081600090555060010161083b565b5090565b600082825260208201905092915050565b7f4d616e616765722063616e6e6f74206265206120706c61796572000000000000600082015250565b600061089e601a83610857565b91506108a982610868565b602082019050919050565b600060208201905081810360008301526108cd81610891565b9050919050565b7f506c6179657220616c7265616479206578697374730000000000000000000000600082015250565b600061090a601583610857565b9150610915826108d4565b602082019050919050565b60006020820190508181036000830152610939816108fd565b9050919050565b7f596f75206e65656420746f207061792061746c6561737420312065746865722060008201527f746f20636f6e74696e7565000000000000000000000000000000000000000000602082015250565b600061099c602b83610857565b91506109a782610940565b604082019050919050565b600060208201905081810360008301526109cb8161098f565b9050919050565b6000819050919050565b6109e5816109d2565b82525050565b6000602082019050610a0060008301846109dc565b92915050565b60008115159050919050565b610a1b81610a06565b82525050565b6000602082019050610a366000830184610a12565b92915050565b600081519050919050565b600082825260208201905092915050565b6000819050602082019050919050565b600073ffffffffffffffffffffffffffffffffffffffff82169050919050565b6000610a9382610a68565b9050919050565b610aa381610a88565b82525050565b6000610ab58383610a9a565b60208301905092915050565b6000602082019050919050565b6000610ad982610a3c565b610ae38185610a47565b9350610aee83610a58565b8060005b83811015610b1f578151610b068882610aa9565b9750610b1183610ac1565b925050600181019050610af2565b5085935050505092915050565b60006020820190508181036000830152610b468184610ace565b905092915050565b610b5781610a88565b82525050565b6000602082019050610b726000830184610b4e565b92915050565b600080fd5b610b86816109d2565b8114610b9157600080fd5b50565b600081359050610ba381610b7d565b92915050565b600060208284031215610bbf57610bbe610b78565b5b6000610bcd84828501610b94565b91505092915050565b7f4e487b7100000000000000000000000000000000000000000000000000000000600052603260045260246000fd5b7f4e487b7100000000000000000000000000000000000000000000000000000000600052601160045260246000fd5b6000610c3f826109d2565b91507fffffffffffffffffffffffffffffffffffffffffffffffffffffffffffffffff821415610c7257610c71610c05565b5b600182019050919050565b7f596f7520646f206e6f742068617665207265616420616363657373206173207960008201527f6f7520617265206e6f20746865206d616e616765720000000000000000000000602082015250565b6000610cd9603583610857565b9150610ce482610c7d565b604082019050919050565b60006020820190508181036000830152610d0881610ccc565b9050919050565b7f596f7520617265206e6f7420746865206d616e61676572000000000000000000600082015250565b6000610d45601783610857565b9150610d5082610d0f565b602082019050919050565b60006020820190508181036000830152610d7481610d38565b9050919050565b7f506c617965727320617265206c657373207468616e2033000000000000000000600082015250565b6000610db1601783610857565b9150610dbc82610d7b565b602082019050919050565b60006020820190508181036000830152610de081610da4565b9050919050565b7f4e487b7100000000000000000000000000000000000000000000000000000000600052601260045260246000fd5b6000610e21826109d2565b9150610e2c836109d2565b925082610e3c57610e3b610de7565b5b828206905092915050565b7f4e487b7100000000000000000000000000000000000000000000000000000000600052604160045260246000fd5b6000819050919050565b610e91610e8c826109d2565b610e76565b82525050565b6000610ea38286610e80565b602082019150610eb38285610e80565b602082019150610ec38284610e80565b60208201915081905094935050505056fea2646970667358221220f754adf1b02ac677cc4a6b8ccd0ff92837eb05889fcb93c6cb257670bbd1f0c264736f6c634300080b0033",
  "immutableReferences": {},
  "source": "// SPDX-License-Identifier: MIT\r\npragma solidity >=0.5.0 <0.9.0;\r\n\r\n\r\n//*******Please note that this contract is not optimised and should not be deployed on the main net.**********\r\n\r\ncontract Lottery{\r\n\r\n    address payable[] public players; //players or participant's address will be added in this array which is of payable type\r\n    address manager; //this is the managers address or the address who deploys the this contract\r\n    address payable public winner;// its a winning payable address which will be used to transfer the winning amount to\r\n\r\n    //invoked once the contract is deployed to set the manager(address)\r\n    constructor(){\r\n        manager = msg.sender;\r\n    }\r\n\r\n\r\n    //function to check that particular player already exists in the players array or not\r\n    function noDuplicatePlayers() public view returns(bool){\r\n        for(uint i=0 ; i < players.length; i++){\r\n            if(players[i]== msg.sender){\r\n                return false;\r\n            }\r\n        }\r\n        return true;\r\n    }\r\n\r\n    //inbuilt receive function to receive ethers from players to initiate their participation\r\n    receive() external payable{\r\n        require(msg.sender != manager, \"Manager cannot be a player\");\r\n        require(noDuplicatePlayers()==true, \"Player already exists\");\r\n        require(msg.value>= 1 ether, \"You need to pay atleast 1 ether to continue\");\r\n        players.push(payable (msg.sender));\r\n    }\r\n\r\n    //to get the balance on the contract after the players send ether for participation\r\n    function getBalance() public view returns(uint){\r\n        require(manager==msg.sender, \"You do not have read access as you are no the manager\");\r\n        return address(this).balance;\r\n    }\r\n\r\n    //function to generate a random number \r\n    //******** Please note its just a contract deployed on test network. Please do not use this function on your main-net. It isn't secure\r\n    function random() private view returns(uint){\r\n        return uint(keccak256(abi.encodePacked(block.difficulty,block.timestamp,players.length)));\r\n    }\r\n\r\n    //function to pickup the winner\r\n    function pickWinner() public{\r\n        require(msg.sender==manager, \"You are not the manager\");\r\n        require(players.length>=3, \"Players are less than 3\");\r\n\r\n        uint rand = random();\r\n        uint index = rand  % players.length;\r\n        winner = players[index];\r\n        winner.transfer(getBalance());\r\n        players = new address payable[](0); //once the winner has been selected we will reset the players array \r\n    }\r\n\r\n    //function to get the addresses of all the participating players\r\n    function allPlayers() public view returns(address payable[] memory){\r\n        return players;\r\n    }\r\n    }\r\n\r\n    //0x138FDdfBF4344838F9A37a14E255A6304373eC69\r\n    //Ganache - 0xD7fdDC8D7fA93F5599EC49f7cf413D53C1870C31",
  "sourcePath": "E:\\DApp\\Lottery\\web3lab\\contracts\\Lottery.sol",
  "compiler": {
    "name": "solc",
    "version": "0.8.11+commit.d7f03943.Emscripten.clang"
  },
  "schemaVersion": "3.4.9",
  "updatedAt": "2022-09-16T18:32:14.721Z",
  "networkType": "ethereum",
  "devdoc": {
    "kind": "dev",
    "methods": {},
    "version": 1
  },
  "userdoc": {
    "kind": "user",
    "methods": {},
    "version": 1
  }
}